:03000000020D17D7
:0C0D1700787FE4F6D8FD75814C020D5E7B
:100F1C00566F6C742E3A2000206D560054656D701F
:040F2C002E3A200039
:100EE400C1000639000000000000093F0000002E88
:100EF4000020DF43000237000002350000024900F1
:010F040000EC
:100E6400E4F5A0C282C280C2817F38FE120F301224
:100E74000EC07F067E00120F30120EC07F0C7E0063
:100E8400120F30120EC07F017E00120F30120EC0FE
:070E94007F807E00020F3099
:040EC0007F047E002D
:100EC400E4FDFCC3ED9FEC9E5015E4FBFA0BBB0064
:0F0ED400010ABA01F8BB7EF50DBD00010C80E4E8
:010EE30022EC
:100C71008E0C8F0D8B0E8A0F89107C277D10120B25
:100C81000AEF2430120AD6AE0CAF0D7C277D10126C
:100C91000B0A7E037FE8CFCDCFCECCCE120B0AEF6D
:100CA1002430AB0EAA0FA910900001120AE8AE0C75
:100CB100AF0D7C037DE8120B0A7E007F64CFCDCFA0
:100CC100CECCCE120B0AEF2430AB0EAA0FA9109096
:100CD1000002120AE8AE0CAF0D7C007D64120B0A13
:100CE1007E007F0ACFCDCFCECCCE120B0AEF2430BF
:100CF100AB0EAA0FA910900003120AE8AE0CAF0DBB
:100D01007C007D0A120B0AED2430AB0EAA0FA9104C
:060D1100900004020AE854
:100F3000C280C281D2828FA07F0A7E00120EC4C2FC
:020F400082220B
:100F4200D280C281D2828FA07F0A7E00120EC4C2DA
:020F52008222F9
:100E9B008B0C8A0D890EAB0CAA0DA90E120ABD6024
:100EAB0013050EE50E7002050D14F9120ABDFF12A3
:050EBB000F4280E2225D
:0C0F540075C33343B104D2AF43C3402245
:080E08008F1B8E1A8D198C1846
:100E1000C2007810120B6DE48FC53000FDA948C2E6
:100E200000AF1BAE1AAD19AC187808120B6D8FC548
:100E30003000FDAB48C200E51BFF8FC53000FDADA3
:100E400048EB7B00FA7E00E97810C333CE33CED86E
:100E5000F92BFFEE3AFE7C00EF2DFFEC3EFE3395C2
:030E6000E0FDFCB6
:010E6300226C
:03004B00020F069B
:100F0600C0E0C0D0E5C454F02480700585C548D241
:060F160000D0D0D0E03253
:030F6000D2942206
:020DA300AB079C
:100DA500E4F513F512751101F510EF75F010A47E39
:100DB500005470FFEE3395E0FDFCEF4480FFED78C5
:100DC50008120B808F178E168D158C14E5132517B9
:100DD500FFE5123516FEE5113515FDE5103514FC58
:100DE500C294120E088F0F8E0E8D0D8C0CD294E5C9
:100DF5000FF50FE50E5403F50EE4F50DF50CAE0EEB
:020E0500AF0F2D
:010E070022C8
:100B9300E4F508F509F50AF50B120F54120F60126C
:100BA3000E64E538640945376003020C59F549F5CD
:100BB3004A852135852236F549754A01E54A25E0FE
:100BC3002421F8E6FE08E6FFD3E5369FE5359E408F
:100BD300048E358F36054AE54A70020549640A4595
:100BE3004970D9AC35AD36E4120A037B827A737946
:100BF3004E78401208F8120A3C8E0A8F0B7F807ED3
:100C030000120F307BFF7A0F791C120E9BD3E50B7A
:100C13009404E50A9429401AAC0AAD0BE4120A03C2
:100C23007B347A807937783C120807120A3C8E0AA3
:100C33008F0B7B007A007939AF0BAE0A120C717BF4
:100C4300007A007939120E9B7BFF7A0F7924120EFA
:100C53009BE4F537F538E4FF120DA38E4B8F4CE57B
:0E0C63003825E02421F8A64B08A64C020BA56C
:10080000020AA8E86480F8E933E83360110460F074
:10081000ED33EC337009E8FCE9FDEAFEEBFF22045E
:1008200060DED3EB9FEA9EE99DE8C2E78CF0C2F759
:1008300095F0400CE8CCF8E9CDF9EACEFAEBCFFB25
:10084000120A7385D0F05804700320D5B3E8047001
:10085000075002B2D5020AB292D5EC0460F7E4CC9C
:10086000C0E0C398F8603B94186008400DD0E0FBEE
:10087000020A8AE4FBFAC9FC8028E830E406E4C9ED
:10088000FBE4CAFCE830E305E4C9CACBFCE8540742
:100890006010F8C3E913F9EA13FAEB13FBEC13FC4D
:1008A000D8F130F52FC3E49CFCEF9BFFEE9AFEEDF0
:1008B00099FDD0E0FBEF4E4D4C701222DB03020A93
:1008C000AFEC2CFCEF33FFEE33FEED33FDED30E704
:1008D000EB020A8AEF2BFFEE3AFEED39FDD0E0FB8A
:1008E00050130BBB0003020AB2ED13FDEE13FEEF33
:0808F00013FFEC13FC020A8A5D
:1008F800EC4D6011E8497017ED33EC3304600DE4FA
:10090800FCFFFEFD22E933E8330470F8020AA8125E
:100918000A7358046009E4CC24815006285009025F
:100928000AB2284003020AAFC0E0EB4A7044B9801B
:1009380006D0E0FB020A9EEF4E701CBD8008EBFF5C
:10094800EAFEE9FD80EBE98DF0A4FEE5F00209E19D
:10095800E9CDF9EAFEEBFFEF89F0A4FCE5F0CE89DA
:10096800F0A42EFFE435F0CD89F0A42DFEE435F097
:100978008067EF4E7005BD80D780C3EF8BF0A4ACC5
:10098800F0EE8BF0A42CFCE435F0F8EF8AF0A42C00
:10099800E5F038FCE433CB8DF0A42CFCE5F03BF813
:1009A800EE8AF0A42CFCE5F038F8E433CF89F0A403
:1009B8002CFCE5F038CF3400CE89F0A42FFFE5F009
:1009C8003EFEE433C98DF0A42EFEE5F039CD8AF061
:1009D800A42FFFE5F03EFEE43DFD33D0E0FB5007D9
:1009E8000BBB000F020AB2EC2CFCEF33FFEE33FE18
:0609F800ED33FD020A8A46
:1009FE0075F020800E75F010800575F0087D007E74
:100A0E00007F003392D530D503120B5FEC334010CC
:100A1E00EF33FFEE33FEED33FDEC33FCD5F0ED227C
:0E0A2E00E5F0247EA2D513CC92E7CDCEFF22B8
:100A3C00EDD2E7CD33EC3392D524814006E4FFFEB2
:100A4C00FDFC22FCE4CFCECDCC24E0501174FF8011
:100A5C00EDC3CC13CCCD13CDCE13CECF13CF0470AE
:070A6C00F030D5DE020B5F44
:100A7300E9D2E7C933E833F892D5EDD2E7CD33ECC9
:070A830033FC5002B2D52242
:100A8A00EC30E7100FBF000C0EBE00080DBD0004CD
:100A9A000BEB6014A2D5EB13FCED92E7FD2274FF79
:100AAA00FCFDFEFF22E480F8A2D574FF13FC7D80D2
:030ABA00E480EFE6
:100D2300020B93E493A3F8E493A34003F68001F248
:100D330008DFF48029E493A3F85407240CC8C333D1
:100D4300C4540F4420C8834004F456800146F6DFA0
:100D5300E4800B0102040810204080900EE4E47E3E
:100D6300019360BCA3FF543F30E509541FFEE49395
:100D7300A360010ECF54C025E060A840B8E493A35C
:100D8300FAE493A3F8E493A3C8C582C8CAC583CA87
:100D9300F0A3C8C582C8CAC583CADFE9DEE780BE3F
:010F050000EB
:100ABD00BB010689828A83E0225002E722BBFE0237
:090ACD00E32289828A83E493226A
:100AD600BB010689828A83F0225002F722BBFE01FF
:020AE600F322F9
:100AE800F8BB010DE58229F582E5833AF583E8F044
:100AF800225006E92582C8F622BBFE05E92582C8F0
:020B0800F222D7
:100B0A00BC000BBE0029EF8DF084FFADF022E4CCCF
:100B1A00F875F008EF2FFFEE33FEEC33FCEE9DEC98
:100B2A00984005FCEE9DFE0FD5F0E9E4CEFD22EDDE
:100B3A00F8F5F0EE8420D21CFEADF075F008EF2F28
:100B4A00FFED33FD4007985006D5F0F222C398FD19
:050B5A000FD5F0EA22B6
:0E0B5F00C3E49FFFE49EFEE49DFDE49CFC22A7
:100B6D00E8600FECC313FCED13FDEE13FEEF13FF66
:030B7D00D8F1228A
:100B8000E8600FEFC333FFEE33FEED33FDEC33FCD3
:030B9000D8F12277
:00000001FF
